{
  "contractName": "Complaint",
  "abi": [
    {
      "constant": true,
      "inputs": [
        {
          "name": "",
          "type": "uint256"
        },
        {
          "name": "",
          "type": "uint256"
        }
      ],
      "name": "judge",
      "outputs": [
        {
          "name": "",
          "type": "address"
        }
      ],
      "payable": false,
      "stateMutability": "view",
      "type": "function"
    },
    {
      "constant": true,
      "inputs": [
        {
          "name": "",
          "type": "uint256"
        }
      ],
      "name": "arr",
      "outputs": [
        {
          "name": "creator",
          "type": "address"
        },
        {
          "name": "name",
          "type": "bytes32"
        },
        {
          "name": "rollno",
          "type": "bytes32"
        },
        {
          "name": "cat",
          "type": "uint256"
        },
        {
          "name": "sub_cat",
          "type": "uint256"
        },
        {
          "name": "date",
          "type": "uint256"
        },
        {
          "name": "complaint",
          "type": "bytes"
        },
        {
          "name": "accepted",
          "type": "bool"
        },
        {
          "name": "closed",
          "type": "bool"
        }
      ],
      "payable": false,
      "stateMutability": "view",
      "type": "function"
    },
    {
      "constant": true,
      "inputs": [],
      "name": "owner",
      "outputs": [
        {
          "name": "",
          "type": "address"
        }
      ],
      "payable": false,
      "stateMutability": "view",
      "type": "function"
    },
    {
      "constant": true,
      "inputs": [
        {
          "name": "",
          "type": "uint256"
        },
        {
          "name": "",
          "type": "uint256"
        }
      ],
      "name": "judgeName",
      "outputs": [
        {
          "name": "",
          "type": "string"
        }
      ],
      "payable": false,
      "stateMutability": "view",
      "type": "function"
    },
    {
      "constant": false,
      "inputs": [
        {
          "name": "cat",
          "type": "uint256"
        },
        {
          "name": "scat",
          "type": "uint256"
        },
        {
          "name": "addr",
          "type": "address"
        },
        {
          "name": "name",
          "type": "string"
        }
      ],
      "name": "setJugde",
      "outputs": [
        {
          "name": "",
          "type": "bool"
        }
      ],
      "payable": false,
      "stateMutability": "nonpayable",
      "type": "function"
    },
    {
      "constant": true,
      "inputs": [
        {
          "name": "cat",
          "type": "uint256"
        },
        {
          "name": "scat",
          "type": "uint256"
        }
      ],
      "name": "isJudge",
      "outputs": [
        {
          "name": "",
          "type": "bool"
        }
      ],
      "payable": false,
      "stateMutability": "view",
      "type": "function"
    },
    {
      "constant": false,
      "inputs": [
        {
          "name": "name",
          "type": "bytes32"
        },
        {
          "name": "rln",
          "type": "bytes32"
        },
        {
          "name": "cat",
          "type": "uint256"
        },
        {
          "name": "scat",
          "type": "uint256"
        },
        {
          "name": "dt",
          "type": "uint256"
        },
        {
          "name": "s",
          "type": "bytes"
        }
      ],
      "name": "registerComplaint",
      "outputs": [
        {
          "name": "",
          "type": "bool"
        }
      ],
      "payable": false,
      "stateMutability": "nonpayable",
      "type": "function"
    },
    {
      "constant": true,
      "inputs": [
        {
          "name": "index",
          "type": "uint256"
        }
      ],
      "name": "getValuesByIndex",
      "outputs": [
        {
          "name": "",
          "type": "address"
        },
        {
          "name": "",
          "type": "bytes32"
        },
        {
          "name": "",
          "type": "bytes32"
        },
        {
          "name": "",
          "type": "uint256"
        },
        {
          "name": "",
          "type": "uint256"
        },
        {
          "name": "",
          "type": "uint256"
        },
        {
          "name": "",
          "type": "bytes"
        },
        {
          "name": "",
          "type": "bool"
        },
        {
          "name": "",
          "type": "bool"
        }
      ],
      "payable": false,
      "stateMutability": "view",
      "type": "function"
    },
    {
      "constant": true,
      "inputs": [],
      "name": "getAllValuesCreators",
      "outputs": [
        {
          "name": "",
          "type": "address[]"
        },
        {
          "name": "",
          "type": "bytes32[]"
        },
        {
          "name": "",
          "type": "bytes32[]"
        }
      ],
      "payable": false,
      "stateMutability": "view",
      "type": "function"
    },
    {
      "constant": true,
      "inputs": [],
      "name": "getAllValuesComplaints",
      "outputs": [
        {
          "name": "",
          "type": "uint256[]"
        },
        {
          "name": "",
          "type": "uint256[]"
        },
        {
          "name": "",
          "type": "uint256[]"
        },
        {
          "name": "",
          "type": "bytes[]"
        },
        {
          "name": "",
          "type": "bool[]"
        },
        {
          "name": "",
          "type": "bool[]"
        }
      ],
      "payable": false,
      "stateMutability": "view",
      "type": "function"
    },
    {
      "constant": false,
      "inputs": [
        {
          "name": "index",
          "type": "uint256"
        }
      ],
      "name": "acceptComplaint",
      "outputs": [
        {
          "name": "",
          "type": "bool"
        }
      ],
      "payable": false,
      "stateMutability": "nonpayable",
      "type": "function"
    },
    {
      "constant": false,
      "inputs": [
        {
          "name": "index",
          "type": "uint256"
        }
      ],
      "name": "closeComplaint",
      "outputs": [
        {
          "name": "",
          "type": "bool"
        }
      ],
      "payable": false,
      "stateMutability": "nonpayable",
      "type": "function"
    }
  ],
  "bytecode": "0x6080604052336000806101000a81548173ffffffffffffffffffffffffffffffffffffffff021916908373ffffffffffffffffffffffffffffffffffffffff160217905550611c50806100536000396000f3006080604052600436106100ba576000357c0100000000000000000000000000000000000000000000000000000000900463ffffffff1680633751d614146100bf5780633c25d996146100fc57806358d8fa2b146101395780635abcbc51146101665780635bf4d282146101a357806371e5ee5f146101e0578063863aaf43146102255780638da5cb5b1461026257806396e08a321461028d578063beccc85e146102d2578063e05f4c8114610302578063e8ce4aac1461033f575b600080fd5b3480156100cb57600080fd5b506100e660048036036100e19190810190611401565b61037c565b6040516100f391906119b3565b60405180910390f35b34801561010857600080fd5b50610123600480360361011e9190810190611360565b610481565b60405161013091906119b3565b60405180910390f35b34801561014557600080fd5b5061014e610609565b60405161015d939291906118dc565b60405180910390f35b34801561017257600080fd5b5061018d6004803603610188919081019061142a565b6107d0565b60405161019a9190611799565b60405180910390f35b3480156101af57600080fd5b506101ca60048036036101c59190810190611466565b610812565b6040516101d791906119b3565b60405180910390f35b3480156101ec57600080fd5b5061020760048036036102029190810190611401565b610917565b60405161021c99989796959493929190611848565b60405180910390f35b34801561023157600080fd5b5061024c60048036036102479190810190611401565b610a46565b60405161025991906119b3565b60405180910390f35b34801561026e57600080fd5b50610277610b4b565b6040516102849190611799565b60405180910390f35b34801561029957600080fd5b506102b460048036036102af9190810190611401565b610b70565b6040516102c9999897969594939291906117b4565b60405180910390f35b3480156102de57600080fd5b506102e7610cc1565b6040516102f996959493929190611928565b60405180910390f35b34801561030e57600080fd5b506103296004803603610324919081019061142a565b611008565b60405161033691906119b3565b60405180910390f35b34801561034b57600080fd5b506103666004803603610361919081019061142a565b611096565b60405161037391906119ce565b60405180910390f35b600060018281548110151561038d57fe5b9060005260206000209060080201600301546001838154811015156103ae57fe5b90600052602060002090600802016004015460026000838152602001908152602001600020600082815260200190815260200160002060009054906101000a900473ffffffffffffffffffffffffffffffffffffffff1673ffffffffffffffffffffffffffffffffffffffff163373ffffffffffffffffffffffffffffffffffffffff1614151561043e57600080fd5b6001808581548110151561044e57fe5b906000526020600020906008020160070160006101000a81548160ff021916908315150217905550600192505050919050565b60006001610120604051908101604052803373ffffffffffffffffffffffffffffffffffffffff1681526020018960001916815260200188600019168152602001878152602001868152602001858152602001848152602001600015158152602001600015158152509080600181540180825580915050906001820390600052602060002090600802016000909192909190915060008201518160000160006101000a81548173ffffffffffffffffffffffffffffffffffffffff021916908373ffffffffffffffffffffffffffffffffffffffff1602179055506020820151816001019060001916905560408201518160020190600019169055606082015181600301556080820151816004015560a0820151816005015560c08201518160060190805190602001906105b6929190611153565b5060e08201518160070160006101000a81548160ff0219169083151502179055506101008201518160070160016101000a81548160ff021916908315150217905550505050600190509695505050505050565b6060806060806060806000806001805490506040519080825280602002602001820160405280156106495781602001602082028038833980820191505090505b5094506001805490506040519080825280602002602001820160405280156106805781602001602082028038833980820191505090505b5093506001805490506040519080825280602002602001820160405280156106b75781602001602082028038833980820191505090505b509250600091505b6001805490508210156107bd576001828154811015156106db57fe5b906000526020600020906008020190508060000160009054906101000a900473ffffffffffffffffffffffffffffffffffffffff16858381518110151561071e57fe5b9060200190602002019073ffffffffffffffffffffffffffffffffffffffff16908173ffffffffffffffffffffffffffffffffffffffff16815250508060010154848381518110151561076d57fe5b9060200190602002019060001916908160001916815250508060020154838381518110151561079857fe5b90602001906020020190600019169081600019168152505081806001019250506106bf565b8484849750975097505050505050909192565b60026020528160005260406000206020528060005260406000206000915091509054906101000a900473ffffffffffffffffffffffffffffffffffffffff1681565b60008060009054906101000a900473ffffffffffffffffffffffffffffffffffffffff1673ffffffffffffffffffffffffffffffffffffffff163373ffffffffffffffffffffffffffffffffffffffff1614151561086f57600080fd5b8260026000878152602001908152602001600020600086815260200190815260200160002060006101000a81548173ffffffffffffffffffffffffffffffffffffffff021916908373ffffffffffffffffffffffffffffffffffffffff16021790555081600360008781526020019081526020016000206000868152602001908152602001600020908051906020019061090a9291906111d3565b5060019050949350505050565b60018181548110151561092657fe5b90600052602060002090600802016000915090508060000160009054906101000a900473ffffffffffffffffffffffffffffffffffffffff1690806001015490806002015490806003015490806004015490806005015490806006018054600181600116156101000203166002900480601f016020809104026020016040519081016040528092919081815260200182805460018160011615610100020316600290048015610a165780601f106109eb57610100808354040283529160200191610a16565b820191906000526020600020905b8154815290600101906020018083116109f957829003601f168201915b5050505050908060070160009054906101000a900460ff16908060070160019054906101000a900460ff16905089565b6000600182815481101515610a5757fe5b906000526020600020906008020160030154600183815481101515610a7857fe5b90600052602060002090600802016004015460026000838152602001908152602001600020600082815260200190815260200160002060009054906101000a900473ffffffffffffffffffffffffffffffffffffffff1673ffffffffffffffffffffffffffffffffffffffff163373ffffffffffffffffffffffffffffffffffffffff16141515610b0857600080fd5b60018085815481101515610b1857fe5b906000526020600020906008020160070160016101000a81548160ff021916908315150217905550600192505050919050565b6000809054906101000a900473ffffffffffffffffffffffffffffffffffffffff1681565b6000806000806000806060600080600060018b815481101515610b8f57fe5b906000526020600020906008020190508060000160009054906101000a900473ffffffffffffffffffffffffffffffffffffffff1681600101548260020154836003015484600401548560050154866006018760070160009054906101000a900460ff168860070160019054906101000a900460ff16828054600181600116156101000203166002900480601f016020809104026020016040519081016040528092919081815260200182805460018160011615610100020316600290048015610c9a5780601f10610c6f57610100808354040283529160200191610c9a565b820191906000526020600020905b815481529060010190602001808311610c7d57829003601f168201915b50505050509250995099509950995099509950995099509950509193959799909294969850565b606080606080606080606080606080606080600080600180549050604051908082528060200260200182016040528015610d0a5781602001602082028038833980820191505090505b509750600180549050604051908082528060200260200182016040528015610d415781602001602082028038833980820191505090505b509650600180549050604051908082528060200260200182016040528015610d785781602001602082028038833980820191505090505b509550600180549050604051908082528060200260200182016040528015610db457816020015b6060815260200190600190039081610d9f5790505b509450600180549050604051908082528060200260200182016040528015610deb5781602001602082028038833980820191505090505b509350600180549050604051908082528060200260200182016040528015610e225781602001602082028038833980820191505090505b509250600091505b600180549050821015610fe657600182815481101515610e4657fe5b9060005260206000209060080201905080600301548883815181101515610e6957fe5b906020019060200201818152505080600401548783815181101515610e8a57fe5b906020019060200201818152505080600501548683815181101515610eab57fe5b9060200190602002018181525050806006018054600181600116156101000203166002900480601f016020809104026020016040519081016040528092919081815260200182805460018160011615610100020316600290048015610f515780601f10610f2657610100808354040283529160200191610f51565b820191906000526020600020905b815481529060010190602001808311610f3457829003601f168201915b50505050508583815181101515610f6457fe5b906020019060200201819052508060070160009054906101000a900460ff168483815181101515610f9157fe5b90602001906020020190151590811515815250508060070160019054906101000a900460ff168383815181101515610fc557fe5b90602001906020020190151590811515815250508180600101925050610e2a565b8787878787879d509d509d509d509d509d505050505050505050909192939495565b600060026000848152602001908152602001600020600083815260200190815260200160002060009054906101000a900473ffffffffffffffffffffffffffffffffffffffff1673ffffffffffffffffffffffffffffffffffffffff163373ffffffffffffffffffffffffffffffffffffffff16141561108b5760019050611090565b600090505b92915050565b6003602052816000526040600020602052806000526040600020600091509150508054600181600116156101000203166002900480601f01602080910402602001604051908101604052809291908181526020018280546001816001161561010002031660029004801561114b5780601f106111205761010080835404028352916020019161114b565b820191906000526020600020905b81548152906001019060200180831161112e57829003601f168201915b505050505081565b828054600181600116156101000203166002900490600052602060002090601f016020900481019282601f1061119457805160ff19168380011785556111c2565b828001600101855582156111c2579182015b828111156111c15782518255916020019190600101906111a6565b5b5090506111cf9190611253565b5090565b828054600181600116156101000203166002900490600052602060002090601f016020900481019282601f1061121457805160ff1916838001178555611242565b82800160010185558215611242579182015b82811115611241578251825591602001919060010190611226565b5b50905061124f9190611253565b5090565b61127591905b80821115611271576000816000905550600101611259565b5090565b90565b60006112848235611b8f565b905092915050565b60006112988235611baf565b905092915050565b600082601f83011215156112b357600080fd5b81356112c66112c182611a1d565b6119f0565b915080825260208301602083018583830111156112e257600080fd5b6112ed838284611bc3565b50505092915050565b600082601f830112151561130957600080fd5b813561131c61131782611a49565b6119f0565b9150808252602083016020830185838301111561133857600080fd5b611343838284611bc3565b50505092915050565b60006113588235611bb9565b905092915050565b60008060008060008060c0878903121561137957600080fd5b600061138789828a0161128c565b965050602061139889828a0161128c565b95505060406113a989828a0161134c565b94505060606113ba89828a0161134c565b93505060806113cb89828a0161134c565b92505060a087013567ffffffffffffffff8111156113e857600080fd5b6113f489828a016112a0565b9150509295509295509295565b60006020828403121561141357600080fd5b60006114218482850161134c565b91505092915050565b6000806040838503121561143d57600080fd5b600061144b8582860161134c565b925050602061145c8582860161134c565b9150509250929050565b6000806000806080858703121561147c57600080fd5b600061148a8782880161134c565b945050602061149b8782880161134c565b93505060406114ac87828801611278565b925050606085013567ffffffffffffffff8111156114c957600080fd5b6114d5878288016112f6565b91505092959194509250565b6114ea81611b4f565b82525050565b60006114fb82611ab6565b80845260208401935061150d83611a75565b60005b8281101561153f576115238683516114e1565b61152c82611b0e565b9150602086019550600181019050611510565b50849250505092915050565b600061155682611ac1565b80845260208401935061156883611a82565b60005b8281101561159a5761157e8683516116ca565b61158782611b1b565b915060208601955060018101905061156b565b50849250505092915050565b60006115b182611acc565b8084526020840193506115c383611a8f565b60005b828110156115f5576115d98683516116d9565b6115e282611b28565b91506020860195506001810190506115c6565b50849250505092915050565b600061160c82611ad7565b8084526020840193508360208202850161162585611a9c565b60005b8481101561165e57838303885261164083835161171e565b925061164b82611b35565b9150602088019750600181019050611628565b508196508694505050505092915050565b600061167a82611ae2565b80845260208401935061168c83611aa9565b60005b828110156116be576116a286835161178a565b6116ab82611b42565b915060208601955060018101905061168f565b50849250505092915050565b6116d381611b6f565b82525050565b6116e281611b7b565b82525050565b60006116f382611af8565b808452611707816020860160208601611bd2565b61171081611c05565b602085010191505092915050565b600061172982611aed565b80845261173d816020860160208601611bd2565b61174681611c05565b602085010191505092915050565b600061175f82611b03565b808452611773816020860160208601611bd2565b61177c81611c05565b602085010191505092915050565b61179381611b85565b82525050565b60006020820190506117ae60008301846114e1565b92915050565b6000610120820190506117ca600083018c6114e1565b6117d7602083018b6116d9565b6117e4604083018a6116d9565b6117f1606083018961178a565b6117fe608083018861178a565b61180b60a083018761178a565b81810360c083015261181d81866116e8565b905061182c60e08301856116ca565b61183a6101008301846116ca565b9a9950505050505050505050565b60006101208201905061185e600083018c6114e1565b61186b602083018b6116d9565b611878604083018a6116d9565b611885606083018961178a565b611892608083018861178a565b61189f60a083018761178a565b81810360c08301526118b1818661171e565b90506118c060e08301856116ca565b6118ce6101008301846116ca565b9a9950505050505050505050565b600060608201905081810360008301526118f681866114f0565b9050818103602083015261190a81856115a6565b9050818103604083015261191e81846115a6565b9050949350505050565b600060c0820190508181036000830152611942818961166f565b90508181036020830152611956818861166f565b9050818103604083015261196a818761166f565b9050818103606083015261197e8186611601565b90508181036080830152611992818561154b565b905081810360a08301526119a6818461154b565b9050979650505050505050565b60006020820190506119c860008301846116ca565b92915050565b600060208201905081810360008301526119e88184611754565b905092915050565b6000604051905081810181811067ffffffffffffffff82111715611a1357600080fd5b8060405250919050565b600067ffffffffffffffff821115611a3457600080fd5b601f19601f8301169050602081019050919050565b600067ffffffffffffffff821115611a6057600080fd5b601f19601f8301169050602081019050919050565b6000602082019050919050565b6000602082019050919050565b6000602082019050919050565b6000602082019050919050565b6000602082019050919050565b600081519050919050565b600081519050919050565b600081519050919050565b600081519050919050565b600081519050919050565b600081519050919050565b600081519050919050565b600081519050919050565b6000602082019050919050565b6000602082019050919050565b6000602082019050919050565b6000602082019050919050565b6000602082019050919050565b600073ffffffffffffffffffffffffffffffffffffffff82169050919050565b60008115159050919050565b6000819050919050565b6000819050919050565b600073ffffffffffffffffffffffffffffffffffffffff82169050919050565b6000819050919050565b6000819050919050565b82818337600083830152505050565b60005b83811015611bf0578082015181840152602081019050611bd5565b83811115611bff576000848401525b50505050565b6000601f19601f83011690509190505600a265627a7a723058207b9465ef809f8b3207fbc15004b027339ef22bd81f51373f8f9e38c142cb9fe26c6578706572696d656e74616cf50037",
  "source": "pragma solidity ^0.4.22;\npragma experimental ABIEncoderV2;\ncontract owned{\n    address public owner;\n    constructor() public{\n        owner = msg.sender;\n    }\n    modifier ownerOnly(){\n        require(msg.sender==owner);\n        _;\n    }\n}\n\ncontract Complaint is owned\n{\n   \n    struct complaint\n    {\n        address creator;\n        bytes32 name;\n        bytes32 rollno;\n        uint256 cat;\n        uint256 sub_cat;\n        uint256 date ;\n        bytes  complaint;\n        bool accepted;\n        bool closed;\n    \n    }\n    \n    complaint[] public arr;\n    \n    modifier creatorOnly(uint256 index){\n        require(arr[index].creator==msg.sender);\n        _;\n    }\n    mapping(uint256=>mapping(uint256=>address)) public judge;\n    mapping(uint256=>mapping(uint256=>string)) public judgeName;\n    \n    modifier judgeOnly(uint256 cat,uint256 scat){\n        require(msg.sender==judge[cat][scat]);\n        _;\n    }\n    \n    \n    function setJugde(uint256 cat,uint256 scat,address addr,string name) public ownerOnly returns(bool){\n        judge[cat][scat] = addr;\n        judgeName[cat][scat]=name;\n        return true;\n    }\n    function isJudge(uint256 cat,uint256 scat) public view  returns(bool){\n        if(msg.sender==judge[cat][scat])\n        return true;\n        else\n        return false;\n    }\n  function registerComplaint(bytes32 name,bytes32 rln,uint256 cat,uint256 scat,uint256 dt,bytes s) public returns(bool)\n  {\n      arr.push(complaint({\n          creator:msg.sender,\n          name:name,\n          rollno:rln,\n          cat:cat,\n          sub_cat:scat,\n          date:dt,\n          complaint:s,\n          accepted:false,\n          closed:false\n      }));\n      return true;\n      \n  }\n  \n  \n  function getValuesByIndex(uint256 index ) public view  returns(address,bytes32,bytes32,uint256,uint256,uint256,bytes,bool,bool)\n  {\n      \n      complaint storage founded = arr[index];\n      return(founded.creator,founded.name,founded.rollno,founded.cat,founded.sub_cat,founded.date,founded.complaint,founded.accepted,founded.closed);\n      \n  }\n  function getAllValuesCreators() public view returns(address[],bytes32[],bytes32[]){\n      address[] memory creators = new address[](arr.length); \n      bytes32[] memory names = new bytes32[](arr.length);\n      bytes32[] memory rollnos = new bytes32[](arr.length);\n      \n        for (uint i = 0; i < arr.length; i++) {\n            complaint storage comp = arr[i];\n            creators[i]=comp.creator;\n            names[i]=comp.name;\n            rollnos[i]=comp.rollno;\n           \n        \n        }\n      return(creators,names,rollnos);\n  }\n  function getAllValuesComplaints() public view returns(uint256[],uint256[],uint256[],bytes[],bool[],bool[]){\n      uint256[] memory cats = new uint256[](arr.length);\n      uint256[] memory scats = new uint256[](arr.length);\n      uint256[] memory dates = new uint256[](arr.length);\n      bytes[] memory complaints = new bytes[](arr.length);\n      bool[] memory accepteds = new bool[](arr.length);\n      bool[] memory closeds = new bool[](arr.length);\n        for (uint i = 0; i < arr.length; i++) {\n            complaint storage comp = arr[i];\n            cats[i] = comp.cat;\n            scats[i] = comp.sub_cat;\n            dates[i] = comp.date;\n            complaints[i] = comp.complaint;\n            accepteds[i]=comp.accepted;\n            closeds[i]=comp.closed;\n        \n        }\n      return(cats,scats,dates,complaints,accepteds,closeds);\n  }\n//   Judges Function\n    function acceptComplaint(uint256 index) public judgeOnly(arr[index].cat,arr[index].sub_cat) returns(bool){\n        arr[index].accepted= true;\n        return true;\n    }\n    function closeComplaint(uint256 index) public judgeOnly(arr[index].cat,arr[index].sub_cat) returns(bool){\n        arr[index].closed= true;\n        return true;\n    }\n     \n}",
  "sourcePath": "/home/amit/friendly-giggle/contracts/Complaint.sol",
  "compiler": {
    "name": "solc",
    "version": "0.4.24+commit.e67f0147.Emscripten.clang"
  },
  "schemaVersion": "2.0.1",
  "updatedAt": "2018-12-11T10:24:31.715Z"
}